{
  "contractName": "SaveEvidence",
  "abi": [
    {
      "anonymous": false,
      "inputs": [
        {
          "indexed": false,
          "internalType": "string",
          "name": "fileName",
          "type": "string"
        },
        {
          "indexed": false,
          "internalType": "string",
          "name": "fileHash",
          "type": "string"
        },
        {
          "indexed": false,
          "internalType": "string",
          "name": "filePath",
          "type": "string"
        },
        {
          "indexed": false,
          "internalType": "string",
          "name": "fileSize",
          "type": "string"
        },
        {
          "indexed": false,
          "internalType": "string",
          "name": "fileUploadTime",
          "type": "string"
        }
      ],
      "name": "saveFileEvent",
      "type": "event"
    },
    {
      "constant": true,
      "inputs": [],
      "name": "admin",
      "outputs": [
        {
          "internalType": "address",
          "name": "",
          "type": "address"
        }
      ],
      "payable": false,
      "stateMutability": "view",
      "type": "function"
    },
    {
      "constant": true,
      "inputs": [],
      "name": "fileCount",
      "outputs": [
        {
          "internalType": "uint256",
          "name": "",
          "type": "uint256"
        }
      ],
      "payable": false,
      "stateMutability": "view",
      "type": "function"
    },
    {
      "constant": true,
      "inputs": [],
      "name": "userCount",
      "outputs": [
        {
          "internalType": "uint256",
          "name": "",
          "type": "uint256"
        }
      ],
      "payable": false,
      "stateMutability": "view",
      "type": "function"
    },
    {
      "constant": false,
      "inputs": [
        {
          "internalType": "string",
          "name": "fileName",
          "type": "string"
        },
        {
          "internalType": "string",
          "name": "fileHash",
          "type": "string"
        },
        {
          "internalType": "string",
          "name": "filePath",
          "type": "string"
        },
        {
          "internalType": "string",
          "name": "fileSize",
          "type": "string"
        },
        {
          "internalType": "string",
          "name": "fileUploadTime",
          "type": "string"
        }
      ],
      "name": "saveFile",
      "outputs": [
        {
          "internalType": "uint256",
          "name": "statusCode",
          "type": "uint256"
        },
        {
          "internalType": "string",
          "name": "extMsg",
          "type": "string"
        }
      ],
      "payable": false,
      "stateMutability": "nonpayable",
      "type": "function"
    },
    {
      "constant": true,
      "inputs": [
        {
          "internalType": "string",
          "name": "_fileHash",
          "type": "string"
        }
      ],
      "name": "getFile",
      "outputs": [
        {
          "internalType": "uint256",
          "name": "statusCode",
          "type": "uint256"
        },
        {
          "internalType": "string",
          "name": "extMsg",
          "type": "string"
        },
        {
          "internalType": "string",
          "name": "fileName",
          "type": "string"
        },
        {
          "internalType": "string",
          "name": "fileHash",
          "type": "string"
        },
        {
          "internalType": "string",
          "name": "filePath",
          "type": "string"
        },
        {
          "internalType": "string",
          "name": "fileSize",
          "type": "string"
        },
        {
          "internalType": "string",
          "name": "fileUploadTime",
          "type": "string"
        }
      ],
      "payable": false,
      "stateMutability": "view",
      "type": "function"
    }
  ],
  "bytecode": "0x6080604052336000806101000a81548173ffffffffffffffffffffffffffffffffffffffff021916908373ffffffffffffffffffffffffffffffffffffffff16021790555060006001556001600255600260035560036004556000600555600060065534801561006e57600080fd5b506116418061007e6000396000f3fe608060405234801561001057600080fd5b50600436106100575760003560e01c806307973ccf1461005c578063439535191461007a57806354fd3dd614610098578063e0876aa81461042f578063f851a44014610786575b600080fd5b6100646107d0565b6040518082815260200191505060405180910390f35b6100826107d6565b6040518082815260200191505060405180910390f35b6103ad600480360360a08110156100ae57600080fd5b81019080803590602001906401000000008111156100cb57600080fd5b8201836020820111156100dd57600080fd5b803590602001918460018302840111640100000000831117156100ff57600080fd5b91908080601f016020809104026020016040519081016040528093929190818152602001838380828437600081840152601f19601f8201169050808301925050505050505091929192908035906020019064010000000081111561016257600080fd5b82018360208201111561017457600080fd5b8035906020019184600183028401116401000000008311171561019657600080fd5b91908080601f016020809104026020016040519081016040528093929190818152602001838380828437600081840152601f19601f820116905080830192505050505050509192919290803590602001906401000000008111156101f957600080fd5b82018360208201111561020b57600080fd5b8035906020019184600183028401116401000000008311171561022d57600080fd5b91908080601f016020809104026020016040519081016040528093929190818152602001838380828437600081840152601f19601f8201169050808301925050505050505091929192908035906020019064010000000081111561029057600080fd5b8201836020820111156102a257600080fd5b803590602001918460018302840111640100000000831117156102c457600080fd5b91908080601f016020809104026020016040519081016040528093929190818152602001838380828437600081840152601f19601f8201169050808301925050505050505091929192908035906020019064010000000081111561032757600080fd5b82018360208201111561033957600080fd5b8035906020019184600183028401116401000000008311171561035b57600080fd5b91908080601f016020809104026020016040519081016040528093929190818152602001838380828437600081840152601f19601f8201169050808301925050505050505091929192905050506107dc565b6040518083815260200180602001828103825283818151815260200191508051906020019080838360005b838110156103f35780820151818401526020810190506103d8565b50505050905090810190601f1680156104205780820380516001836020036101000a031916815260200191505b50935050505060405180910390f35b6104e86004803603602081101561044557600080fd5b810190808035906020019064010000000081111561046257600080fd5b82018360208201111561047457600080fd5b8035906020019184600183028401116401000000008311171561049657600080fd5b91908080601f016020809104026020016040519081016040528093929190818152602001838380828437600081840152601f19601f82011690508083019250505050505050919291929050505061100c565b6040518088815260200180602001806020018060200180602001806020018060200187810387528d818151815260200191508051906020019080838360005b83811015610542578082015181840152602081019050610527565b50505050905090810190601f16801561056f5780820380516001836020036101000a031916815260200191505b5087810386528c818151815260200191508051906020019080838360005b838110156105a857808201518184015260208101905061058d565b50505050905090810190601f1680156105d55780820380516001836020036101000a031916815260200191505b5087810385528b818151815260200191508051906020019080838360005b8381101561060e5780820151818401526020810190506105f3565b50505050905090810190601f16801561063b5780820380516001836020036101000a031916815260200191505b5087810384528a818151815260200191508051906020019080838360005b83811015610674578082015181840152602081019050610659565b50505050905090810190601f1680156106a15780820380516001836020036101000a031916815260200191505b50878103835289818151815260200191508051906020019080838360005b838110156106da5780820151818401526020810190506106bf565b50505050905090810190601f1680156107075780820380516001836020036101000a031916815260200191505b50878103825288818151815260200191508051906020019080838360005b83811015610740578082015181840152602081019050610725565b50505050905090810190601f16801561076d5780820380516001836020036101000a031916815260200191505b509d505050505050505050505050505060405180910390f35b61078e6114bb565b604051808273ffffffffffffffffffffffffffffffffffffffff1673ffffffffffffffffffffffffffffffffffffffff16815260200191505060405180910390f35b60055481565b60065481565b600060607fa80651eaf73bbc58ca2188fc784176f63f80226b15532fac70fa27b3fa842abe878787878760405180806020018060200180602001806020018060200186810386528b818151815260200191508051906020019080838360005b8381101561085657808201518184015260208101905061083b565b50505050905090810190601f1680156108835780820380516001836020036101000a031916815260200191505b5086810385528a818151815260200191508051906020019080838360005b838110156108bc5780820151818401526020810190506108a1565b50505050905090810190601f1680156108e95780820380516001836020036101000a031916815260200191505b50868103845289818151815260200191508051906020019080838360005b83811015610922578082015181840152602081019050610907565b50505050905090810190601f16801561094f5780820380516001836020036101000a031916815260200191505b50868103835288818151815260200191508051906020019080838360005b8381101561098857808201518184015260208101905061096d565b50505050905090810190601f1680156109b55780820380516001836020036101000a031916815260200191505b50868103825287818151815260200191508051906020019080838360005b838110156109ee5780820151818401526020810190506109d3565b50505050905090810190601f168015610a1b5780820380516001836020036101000a031916815260200191505b509a505050505050505050505060405180910390a16000600860003373ffffffffffffffffffffffffffffffffffffffff1673ffffffffffffffffffffffffffffffffffffffff1681526020019081526020016000209050600073ffffffffffffffffffffffffffffffffffffffff168160010160009054906101000a900473ffffffffffffffffffffffffffffffffffffffff1673ffffffffffffffffffffffffffffffffffffffff161415610bdb576005600081546001019190508190558160000181905550338160010160006101000a81548173ffffffffffffffffffffffffffffffffffffffff021916908373ffffffffffffffffffffffffffffffffffffffff16021790555080600860003373ffffffffffffffffffffffffffffffffffffffff1673ffffffffffffffffffffffffffffffffffffffff168152602001908152602001600020600082015481600001556001820160009054906101000a900473ffffffffffffffffffffffffffffffffffffffff168160010160006101000a81548173ffffffffffffffffffffffffffffffffffffffff021916908373ffffffffffffffffffffffffffffffffffffffff1602179055509050505b600081600201886040518082805190602001908083835b60208310610c155780518252602082019150602081019050602083039250610bf2565b6001836020036101000a0380198251168184511680821785525050505050509050019150509081526020016040518091039020905060008160020180546001816001161561010002031660029004905014610cae576004546040518060400160405280600f81526020017fe69687e4bbb6e5b7b2e5ad98e59ca80000000000000000000000000000000000815250935093505050611002565b600660008154600101919050819055816000018190555088816001019080519060200190610cdd9291906114e0565b5087816002019080519060200190610cf69291906114e0565b5086816003019080519060200190610d0f9291906114e0565b5085816004019080519060200190610d289291906114e0565b5084816005019080519060200190610d419291906114e0565b508082600201896040518082805190602001908083835b60208310610d7b5780518252602082019150602081019050602083039250610d58565b6001836020036101000a03801982511681845116808217855250505050505090500191505090815260200160405180910390206000820154816000015560018201816001019080546001816001161561010002031660029004610ddf929190611560565b5060028201816002019080546001816001161561010002031660029004610e07929190611560565b5060038201816003019080546001816001161561010002031660029004610e2f929190611560565b5060048201816004019080546001816001161561010002031660029004610e57929190611560565b5060058201816005019080546001816001161561010002031660029004610e7f929190611560565b50905050806007896040518082805190602001908083835b60208310610eba5780518252602082019150602081019050602083039250610e97565b6001836020036101000a03801982511681845116808217855250505050505090500191505090815260200160405180910390206000820154816000015560018201816001019080546001816001161561010002031660029004610f1e929190611560565b5060028201816002019080546001816001161561010002031660029004610f46929190611560565b5060038201816003019080546001816001161561010002031660029004610f6e929190611560565b5060048201816004019080546001816001161561010002031660029004610f96929190611560565b5060058201816005019080546001816001161561010002031660029004610fbe929190611560565b509050506001546040518060400160405280601281526020017fe69687e4bbb6e4b88ae4bca0e68890e58a9f00000000000000000000000000008152509350935050505b9550959350505050565b600060608060608060608060006007896040518082805190602001908083835b6020831061104f578051825260208201915060208101905060208303925061102c565b6001836020036101000a038019825116818451168082178552505050505050905001915050908152602001604051809103902090506000816002018054600181600116156101000203166002900490501415611142576003546040518060400160405280600f81526020017fe69687e4bbb6e4b88de5ad98e59ca8000000000000000000000000000000000081525060405180602001604052806000815250604051806020016040528060008152506040518060200160405280600081525060405180602001604052806000815250604051806020016040528060008152509750975097509750975097509750506114b0565b60015481600101826002018360030184600401856005016040518060400160405280600c81526020017fe69687e4bbb6e5ad98e59ca800000000000000000000000000000000000000008152509493929190848054600181600116156101000203166002900480601f0160208091040260200160405190810160405280929190818152602001828054600181600116156101000203166002900480156112295780601f106111fe57610100808354040283529160200191611229565b820191906000526020600020905b81548152906001019060200180831161120c57829003601f168201915b50505050509450838054600181600116156101000203166002900480601f0160208091040260200160405190810160405280929190818152602001828054600181600116156101000203166002900480156112c55780601f1061129a576101008083540402835291602001916112c5565b820191906000526020600020905b8154815290600101906020018083116112a857829003601f168201915b50505050509350828054600181600116156101000203166002900480601f0160208091040260200160405190810160405280929190818152602001828054600181600116156101000203166002900480156113615780601f1061133657610100808354040283529160200191611361565b820191906000526020600020905b81548152906001019060200180831161134457829003601f168201915b50505050509250818054600181600116156101000203166002900480601f0160208091040260200160405190810160405280929190818152602001828054600181600116156101000203166002900480156113fd5780601f106113d2576101008083540402835291602001916113fd565b820191906000526020600020905b8154815290600101906020018083116113e057829003601f168201915b50505050509150808054600181600116156101000203166002900480601f0160208091040260200160405190810160405280929190818152602001828054600181600116156101000203166002900480156114995780601f1061146e57610100808354040283529160200191611499565b820191906000526020600020905b81548152906001019060200180831161147c57829003601f168201915b505050505090509750975097509750975097509750505b919395979092949650565b6000809054906101000a900473ffffffffffffffffffffffffffffffffffffffff1681565b828054600181600116156101000203166002900490600052602060002090601f016020900481019282601f1061152157805160ff191683800117855561154f565b8280016001018555821561154f579182015b8281111561154e578251825591602001919060010190611533565b5b50905061155c91906115e7565b5090565b828054600181600116156101000203166002900490600052602060002090601f016020900481019282601f1061159957805485556115d6565b828001600101855582156115d657600052602060002091601f016020900482015b828111156115d55782548255916001019190600101906115ba565b5b5090506115e391906115e7565b5090565b61160991905b808211156116055760008160009055506001016115ed565b5090565b9056fea265627a7a72315820fe0a1e26a1aece2e5bf2e2130ebca92186b4f67a8d66edb07acf9e420405f7bd64736f6c63430005100032",
  "source": "pragma solidity >=0.4.22 <0.8.0;\r\n\r\n/*\r\n * 存证智能合约\r\n * @author 王伟强\r\n * @version 1.0.0\r\n * @date 2020/09/19\r\n*/\r\ncontract SaveEvidence {\r\n    address public admin = msg.sender;\r\n    //状态码\r\n    uint CODE_SUCCESS = 0;\r\n    uint USER_NOT_EXIST = 1;\r\n    uint FILE_NOT_EXIST = 2;\r\n    uint FILE_ALREADY_EXIST = 3;\r\n\r\n    struct File{\r\n        uint fileId;\r\n        string fileName;\r\n        string fileHash;\r\n        string filePath;\r\n        string fileSize;\r\n        string fileUploadTime;\r\n    }\r\n\r\n    struct User{\r\n        uint userId;\r\n        address userAddr;\r\n        //文件Hash => File\r\n        mapping(string => File) userFileMap;\r\n    }\r\n\r\n    uint public userCount = 0;\r\n    uint public fileCount = 0;\r\n\r\n    //文件Hash => File\r\n    mapping (string => File) fileHashMap;\r\n\r\n    //用户address => User\r\n    mapping (address => User) userMap;\r\n\r\n    //存储文件事件\r\n    event saveFileEvent(string fileName, string fileHash, string filePath, string fileSize, string fileUploadTime);\r\n\r\n    /**\r\n     * @param fileHash 文件Hash\r\n     * @return statusCode 文件状态码\r\n     * @return extMsg 扩展信息\r\n    */\r\n    function saveFile(string memory fileName, string memory fileHash, string memory filePath, string memory fileSize, string memory fileUploadTime) public returns(uint statusCode, string memory extMsg){\r\n        emit saveFileEvent(fileName, fileHash, filePath, fileSize, fileUploadTime);\r\n        //判断是否已经存在该用户\r\n        User storage user = userMap[msg.sender];\r\n        if(user.userAddr == address(0) ){\r\n            user.userId =  ++userCount;\r\n            user.userAddr = msg.sender;\r\n            userMap[msg.sender] = user;\r\n        }\r\n\r\n        File storage file = user.userFileMap[fileHash];\r\n        if( bytes(file.fileHash).length != 0 ){\r\n            return (FILE_ALREADY_EXIST,\"文件已存在\");\r\n        }\r\n        file.fileId = ++fileCount;\r\n        file.fileName = fileName;\r\n        file.fileHash = fileHash;\r\n        file.filePath = filePath;\r\n        file.fileSize = fileSize;\r\n        file.fileUploadTime = fileUploadTime;\r\n        user.userFileMap[fileHash] = file;\r\n        fileHashMap[fileHash] = file;\r\n        return (CODE_SUCCESS,\"文件上传成功\");\r\n    }\r\n\r\n    function getFile(string memory _fileHash) view public returns (uint statusCode, string memory extMsg, string memory fileName, string memory fileHash, string memory filePath, string memory fileSize, string memory fileUploadTime){\r\n        File storage file = fileHashMap[_fileHash];\r\n        if( bytes(file.fileHash).length == 0 ){\r\n            return (FILE_NOT_EXIST, \"文件不存在\",\"\",\"\",\"\",\"\",\"\");\r\n        }\r\n        return (CODE_SUCCESS, \"文件存在\", file.fileName, file.fileHash, file.filePath, file.fileSize, file.fileUploadTime);\r\n    }\r\n}",
  "sourcePath": "E:/SaveEvidence/contracts/SaveEvidence.sol",
  "compiler": {
    "name": "solc",
    "version": "0.5.16+commit.9c3226ce.Emscripten.clang"
  },
  "schemaVersion": "3.2.4",
  "updatedAt": "2020-09-28T02:37:23.109Z",
  "networkType": "ethereum",
  "devdoc": {
    "methods": {
      "saveFile(string,string,string,string,string)": {
        "params": {
          "fileHash": "文件Hash"
        },
        "return": "statusCode 文件状态码extMsg 扩展信息"
      }
    }
  },
  "userdoc": {
    "methods": {}
  }
}